{
  "contractName": "ERC20Token",
  "abi": [
    {
      "inputs": [
        {
          "internalType": "uint256",
          "name": "_initialAmount",
          "type": "uint256"
        },
        {
          "internalType": "string",
          "name": "_tokenName",
          "type": "string"
        },
        {
          "internalType": "uint8",
          "name": "_decimalUnits",
          "type": "uint8"
        },
        {
          "internalType": "string",
          "name": "_tokenSymbol",
          "type": "string"
        }
      ],
      "payable": false,
      "stateMutability": "nonpayable",
      "type": "constructor"
    },
    {
      "anonymous": false,
      "inputs": [
        {
          "indexed": true,
          "internalType": "address",
          "name": "tokenOwner",
          "type": "address"
        },
        {
          "indexed": true,
          "internalType": "address",
          "name": "spender",
          "type": "address"
        },
        {
          "indexed": false,
          "internalType": "uint256",
          "name": "tokens",
          "type": "uint256"
        }
      ],
      "name": "Approval",
      "type": "event"
    },
    {
      "anonymous": false,
      "inputs": [
        {
          "indexed": true,
          "internalType": "address",
          "name": "from",
          "type": "address"
        },
        {
          "indexed": true,
          "internalType": "address",
          "name": "to",
          "type": "address"
        },
        {
          "indexed": false,
          "internalType": "uint256",
          "name": "tokens",
          "type": "uint256"
        }
      ],
      "name": "Transfer",
      "type": "event"
    },
    {
      "constant": true,
      "inputs": [
        {
          "internalType": "address",
          "name": "",
          "type": "address"
        },
        {
          "internalType": "address",
          "name": "",
          "type": "address"
        }
      ],
      "name": "allowed",
      "outputs": [
        {
          "internalType": "uint256",
          "name": "",
          "type": "uint256"
        }
      ],
      "payable": false,
      "stateMutability": "view",
      "type": "function"
    },
    {
      "constant": true,
      "inputs": [
        {
          "internalType": "address",
          "name": "",
          "type": "address"
        }
      ],
      "name": "balances",
      "outputs": [
        {
          "internalType": "uint256",
          "name": "",
          "type": "uint256"
        }
      ],
      "payable": false,
      "stateMutability": "view",
      "type": "function"
    },
    {
      "constant": true,
      "inputs": [],
      "name": "decimals",
      "outputs": [
        {
          "internalType": "uint8",
          "name": "",
          "type": "uint8"
        }
      ],
      "payable": false,
      "stateMutability": "view",
      "type": "function"
    },
    {
      "constant": true,
      "inputs": [],
      "name": "name",
      "outputs": [
        {
          "internalType": "string",
          "name": "",
          "type": "string"
        }
      ],
      "payable": false,
      "stateMutability": "view",
      "type": "function"
    },
    {
      "constant": true,
      "inputs": [],
      "name": "symbol",
      "outputs": [
        {
          "internalType": "string",
          "name": "",
          "type": "string"
        }
      ],
      "payable": false,
      "stateMutability": "view",
      "type": "function"
    },
    {
      "constant": true,
      "inputs": [],
      "name": "totSupply",
      "outputs": [
        {
          "internalType": "uint256",
          "name": "",
          "type": "uint256"
        }
      ],
      "payable": false,
      "stateMutability": "view",
      "type": "function"
    },
    {
      "constant": false,
      "inputs": [
        {
          "internalType": "address",
          "name": "_to",
          "type": "address"
        },
        {
          "internalType": "uint256",
          "name": "_value",
          "type": "uint256"
        }
      ],
      "name": "transfer",
      "outputs": [
        {
          "internalType": "bool",
          "name": "success",
          "type": "bool"
        }
      ],
      "payable": false,
      "stateMutability": "nonpayable",
      "type": "function"
    },
    {
      "constant": false,
      "inputs": [
        {
          "internalType": "address",
          "name": "_from",
          "type": "address"
        },
        {
          "internalType": "address",
          "name": "_to",
          "type": "address"
        },
        {
          "internalType": "uint256",
          "name": "_value",
          "type": "uint256"
        }
      ],
      "name": "transferFrom",
      "outputs": [
        {
          "internalType": "bool",
          "name": "success",
          "type": "bool"
        }
      ],
      "payable": false,
      "stateMutability": "nonpayable",
      "type": "function"
    },
    {
      "constant": true,
      "inputs": [
        {
          "internalType": "address",
          "name": "_owner",
          "type": "address"
        }
      ],
      "name": "balanceOf",
      "outputs": [
        {
          "internalType": "uint256",
          "name": "balance",
          "type": "uint256"
        }
      ],
      "payable": false,
      "stateMutability": "view",
      "type": "function"
    },
    {
      "constant": false,
      "inputs": [
        {
          "internalType": "address",
          "name": "_spender",
          "type": "address"
        },
        {
          "internalType": "uint256",
          "name": "_value",
          "type": "uint256"
        }
      ],
      "name": "approve",
      "outputs": [
        {
          "internalType": "bool",
          "name": "success",
          "type": "bool"
        }
      ],
      "payable": false,
      "stateMutability": "nonpayable",
      "type": "function"
    },
    {
      "constant": true,
      "inputs": [
        {
          "internalType": "address",
          "name": "_owner",
          "type": "address"
        },
        {
          "internalType": "address",
          "name": "_spender",
          "type": "address"
        }
      ],
      "name": "allowance",
      "outputs": [
        {
          "internalType": "uint256",
          "name": "remaining",
          "type": "uint256"
        }
      ],
      "payable": false,
      "stateMutability": "view",
      "type": "function"
    },
    {
      "constant": true,
      "inputs": [],
      "name": "totalSupply",
      "outputs": [
        {
          "internalType": "uint256",
          "name": "totSupp",
          "type": "uint256"
        }
      ],
      "payable": false,
      "stateMutability": "view",
      "type": "function"
    }
  ],
  "bytecode": "0x608060405234801561001057600080fd5b506040516109bc3803806109bc8339818101604052608081101561003357600080fd5b81516020830180516040519294929383019291908464010000000082111561005a57600080fd5b90830190602082018581111561006f57600080fd5b825164010000000081118282018810171561008957600080fd5b82525081516020918201929091019080838360005b838110156100b657818101518382015260200161009e565b50505050905090810190601f1680156100e35780820380516001836020036101000a031916815260200191505b5060408181526020830151920180519294919391928464010000000082111561010b57600080fd5b90830190602082018581111561012057600080fd5b825164010000000081118282018810171561013a57600080fd5b82525081516020918201929091019080838360005b8381101561016757818101518382015260200161014f565b50505050905090810190601f1680156101945780820380516001836020036101000a031916815260200191505b50604090815233600090815260016020908152919020889055600388905586516101c794506004935090870191506101f4565b506005805460ff191660ff841617905580516101ea9060069060208401906101f4565b505050505061028f565b828054600181600116156101000203166002900490600052602060002090601f016020900481019282601f1061023557805160ff1916838001178555610262565b82800160010185558215610262579182015b82811115610262578251825591602001919060010190610247565b5061026e929150610272565b5090565b61028c91905b8082111561026e5760008155600101610278565b90565b61071e8061029e6000396000f3fe608060405234801561001057600080fd5b50600436106100b45760003560e01c80635c658165116100715780635c6581651461020a57806370a082311461023857806381fbf0a51461025e57806395d89b4114610266578063a9059cbb1461026e578063dd62ed3e1461029a576100b4565b806306fdde03146100b9578063095ea7b31461013657806318160ddd1461017657806323b872dd1461019057806327e235e3146101c6578063313ce567146101ec575b600080fd5b6100c16102c8565b6040805160208082528351818301528351919283929083019185019080838360005b838110156100fb5781810151838201526020016100e3565b50505050905090810190601f1680156101285780820380516001836020036101000a031916815260200191505b509250505060405180910390f35b6101626004803603604081101561014c57600080fd5b506001600160a01b038135169060200135610356565b604080519115158252519081900360200190f35b61017e6103bc565b60408051918252519081900360200190f35b610162600480360360608110156101a657600080fd5b506001600160a01b038135811691602081013590911690604001356103c2565b61017e600480360360208110156101dc57600080fd5b50356001600160a01b03166104f6565b6101f4610508565b6040805160ff9092168252519081900360200190f35b61017e6004803603604081101561022057600080fd5b506001600160a01b0381358116916020013516610511565b61017e6004803603602081101561024e57600080fd5b50356001600160a01b031661052e565b61017e610549565b6100c161054f565b6101626004803603604081101561028457600080fd5b506001600160a01b0381351690602001356105aa565b61017e600480360360408110156102b057600080fd5b506001600160a01b0381358116916020013516610666565b6004805460408051602060026001851615610100026000190190941693909304601f8101849004840282018401909252818152929183018282801561034e5780601f106103235761010080835404028352916020019161034e565b820191906000526020600020905b81548152906001019060200180831161033157829003601f168201915b505050505081565b3360008181526002602090815260408083206001600160a01b038716808552908352818420869055815186815291519394909390927f8c5be1e5ebec7d5bd14f71427d1e84f3dd0314c0f7b2291e5b200ac8c7c3b925928290030190a350600192915050565b60035490565b6001600160a01b0383166000818152600260209081526040808320338452825280832054938352600190915281205490919083118015906104035750828110155b61043e5760405162461bcd60e51b815260040180806020018281038252602f815260200180610692602f913960400191505060405180910390fd5b6001600160a01b03808516600090815260016020526040808220805487019055918716815220805484900390556000198110156104a0576001600160a01b03851660009081526002602090815260408083203384529091529020805484900390555b836001600160a01b0316856001600160a01b03167fddf252ad1be2c89b69c2b068fc378daa952ba7f163c4a11628f55a4df523b3ef856040518082815260200191505060405180910390a3506001949350505050565b60016020526000908152604090205481565b60055460ff1681565b600260209081526000928352604080842090915290825290205481565b6001600160a01b031660009081526001602052604090205490565b60035481565b6006805460408051602060026001851615610100026000190190941693909304601f8101849004840282018401909252818152929183018282801561034e5780601f106103235761010080835404028352916020019161034e565b336000908152600160205260408120548211156105f85760405162461bcd60e51b81526004018080602001828103825260298152602001806106c16029913960400191505060405180910390fd5b336000818152600160209081526040808320805487900390556001600160a01b03871680845292819020805487019055805186815290519293927fddf252ad1be2c89b69c2b068fc378daa952ba7f163c4a11628f55a4df523b3ef929181900390910190a350600192915050565b6001600160a01b0391821660009081526002602090815260408083209390941682529190915220549056fe496e73756666696369656e7420616c6c6f7765642066756e647320666f72207472616e7366657220736f757263652e496e73756666696369656e742066756e647320666f72207472616e73666572207265736f757263652ea265627a7a72315820ec489e3df644d368542bceffee50bd3a8e347dda9c57d7f8d018be606155a34564736f6c63430005100032",
  "source": "// SPDX-License-Identifier: SEE LICENSE IN LICENSE\npragma solidity ^0.5.16;\n\nimport \"./erc20Interface.sol\";\n\ncontract ERC20Token is ERC20Interface {\n\n  uint256 constant private MAX_UINT256 = 2**256 - 1;\n  mapping (address => uint256) public balances;\n  mapping (address => mapping (address => uint256)) public allowed;\n\n  uint256 public totSupply;\n  string public name;\n  uint8 public decimals;\n  string public symbol;\n\n  constructor (\n    uint256 _initialAmount,\n    string memory _tokenName,\n    uint8 _decimalUnits,\n    string memory _tokenSymbol\n  ) public {\n    balances[msg.sender] = _initialAmount;\n    totSupply = _initialAmount;\n    name = _tokenName;\n    decimals = _decimalUnits;\n    symbol = _tokenSymbol;\n  }\n\n  function transfer(address _to, uint256 _value) public returns (bool success) {\n    require(balances[msg.sender] >= _value, \"Insufficient funds for transfer resource.\");\n    balances[msg.sender] -= _value;\n    balances[_to] += _value;\n    emit Transfer(msg.sender, _to, _value);\n    return true;\n  }\n\n  function transferFrom(address _from, address _to, uint256 _value) public returns (bool success) {\n    uint256 allowance = allowed[_from][msg.sender];\n    require(balances[_from] >= _value && allowance >= _value, \"Insufficient allowed funds for transfer source.\");\n    balances[_to] += _value;\n    balances[_from] -= _value;\n    if (allowance < MAX_UINT256) {\n      allowed[_from][msg.sender] -= _value;\n    }\n    emit Transfer(_from, _to, _value);\n    return true;\n  }\n\n  function balanceOf(address _owner) public view returns (uint256 balance) {\n    return balances[_owner];\n  }\n\n  function approve(address _spender, uint256 _value) public returns (bool success) {\n    allowed[msg.sender][_spender] = _value;\n    emit Approval(msg.sender, _spender, _value);\n    return true;\n  }\n\n  function allowance(address _owner, address _spender) public view returns (uint256 remaining) {\n    return allowed[_owner][_spender];\n  }\n\n  function totalSupply() public view returns (uint256 totSupp) {\n    return totSupply;\n  }\n\n}",
  "sourcePath": "/home/dika/learning/solidity/supplychainapp/contracts/ERC20Token.sol",
  "compiler": {
    "name": "solc",
    "version": "0.5.16+commit.9c3226ce.Emscripten.clang"
  },
  "schemaVersion": "3.4.13",
  "updatedAt": "2023-04-30T04:18:46.602Z",
  "devdoc": {
    "methods": {}
  },
  "userdoc": {
    "methods": {}
  }
}