{
  "contractName": "SupplyChain",
  "abi": [
    {
      "anonymous": false,
      "inputs": [
        {
          "indexed": false,
          "internalType": "uint32",
          "name": "productId",
          "type": "uint32"
        }
      ],
      "name": "TransferOwnership",
      "type": "event"
    },
    {
      "constant": true,
      "inputs": [],
      "name": "owner_id",
      "outputs": [
        {
          "internalType": "uint32",
          "name": "",
          "type": "uint32"
        }
      ],
      "payable": false,
      "stateMutability": "view",
      "type": "function"
    },
    {
      "constant": true,
      "inputs": [
        {
          "internalType": "uint32",
          "name": "",
          "type": "uint32"
        }
      ],
      "name": "ownerships",
      "outputs": [
        {
          "internalType": "uint32",
          "name": "productId",
          "type": "uint32"
        },
        {
          "internalType": "uint32",
          "name": "ownerId",
          "type": "uint32"
        },
        {
          "internalType": "uint32",
          "name": "trxTimeStamp",
          "type": "uint32"
        },
        {
          "internalType": "address",
          "name": "productOwner",
          "type": "address"
        }
      ],
      "payable": false,
      "stateMutability": "view",
      "type": "function"
    },
    {
      "constant": true,
      "inputs": [],
      "name": "participant_id",
      "outputs": [
        {
          "internalType": "uint32",
          "name": "",
          "type": "uint32"
        }
      ],
      "payable": false,
      "stateMutability": "view",
      "type": "function"
    },
    {
      "constant": true,
      "inputs": [
        {
          "internalType": "uint32",
          "name": "",
          "type": "uint32"
        }
      ],
      "name": "participants",
      "outputs": [
        {
          "internalType": "string",
          "name": "userName",
          "type": "string"
        },
        {
          "internalType": "string",
          "name": "password",
          "type": "string"
        },
        {
          "internalType": "string",
          "name": "participantType",
          "type": "string"
        },
        {
          "internalType": "address",
          "name": "participantAddress",
          "type": "address"
        }
      ],
      "payable": false,
      "stateMutability": "view",
      "type": "function"
    },
    {
      "constant": true,
      "inputs": [
        {
          "internalType": "uint32",
          "name": "",
          "type": "uint32"
        },
        {
          "internalType": "uint256",
          "name": "",
          "type": "uint256"
        }
      ],
      "name": "productTrack",
      "outputs": [
        {
          "internalType": "uint32",
          "name": "",
          "type": "uint32"
        }
      ],
      "payable": false,
      "stateMutability": "view",
      "type": "function"
    },
    {
      "constant": true,
      "inputs": [],
      "name": "product_id",
      "outputs": [
        {
          "internalType": "uint32",
          "name": "",
          "type": "uint32"
        }
      ],
      "payable": false,
      "stateMutability": "view",
      "type": "function"
    },
    {
      "constant": true,
      "inputs": [
        {
          "internalType": "uint32",
          "name": "",
          "type": "uint32"
        }
      ],
      "name": "products",
      "outputs": [
        {
          "internalType": "string",
          "name": "modelNumber",
          "type": "string"
        },
        {
          "internalType": "string",
          "name": "partNumber",
          "type": "string"
        },
        {
          "internalType": "string",
          "name": "serialNumber",
          "type": "string"
        },
        {
          "internalType": "address",
          "name": "productOwner",
          "type": "address"
        },
        {
          "internalType": "uint32",
          "name": "cost",
          "type": "uint32"
        },
        {
          "internalType": "uint32",
          "name": "mfgTimeStamp",
          "type": "uint32"
        }
      ],
      "payable": false,
      "stateMutability": "view",
      "type": "function"
    },
    {
      "constant": false,
      "inputs": [
        {
          "internalType": "string",
          "name": "_name",
          "type": "string"
        },
        {
          "internalType": "string",
          "name": "_pass",
          "type": "string"
        },
        {
          "internalType": "address",
          "name": "_pAdd",
          "type": "address"
        },
        {
          "internalType": "string",
          "name": "_pType",
          "type": "string"
        }
      ],
      "name": "addParticipant",
      "outputs": [
        {
          "internalType": "uint32",
          "name": "",
          "type": "uint32"
        }
      ],
      "payable": false,
      "stateMutability": "nonpayable",
      "type": "function"
    },
    {
      "constant": true,
      "inputs": [
        {
          "internalType": "uint32",
          "name": "_participant_id",
          "type": "uint32"
        }
      ],
      "name": "getParticipant",
      "outputs": [
        {
          "internalType": "string",
          "name": "",
          "type": "string"
        },
        {
          "internalType": "address",
          "name": "",
          "type": "address"
        },
        {
          "internalType": "string",
          "name": "",
          "type": "string"
        }
      ],
      "payable": false,
      "stateMutability": "view",
      "type": "function"
    },
    {
      "constant": false,
      "inputs": [
        {
          "internalType": "uint32",
          "name": "_ownerId",
          "type": "uint32"
        },
        {
          "internalType": "string",
          "name": "_modelNumber",
          "type": "string"
        },
        {
          "internalType": "string",
          "name": "_partNumber",
          "type": "string"
        },
        {
          "internalType": "string",
          "name": "_serialNumber",
          "type": "string"
        },
        {
          "internalType": "uint32",
          "name": "_productCost",
          "type": "uint32"
        }
      ],
      "name": "addProduct",
      "outputs": [
        {
          "internalType": "uint32",
          "name": "",
          "type": "uint32"
        }
      ],
      "payable": false,
      "stateMutability": "nonpayable",
      "type": "function"
    },
    {
      "constant": true,
      "inputs": [
        {
          "internalType": "uint32",
          "name": "_productId",
          "type": "uint32"
        }
      ],
      "name": "getProduct",
      "outputs": [
        {
          "internalType": "string",
          "name": "",
          "type": "string"
        },
        {
          "internalType": "string",
          "name": "",
          "type": "string"
        },
        {
          "internalType": "string",
          "name": "",
          "type": "string"
        },
        {
          "internalType": "uint32",
          "name": "",
          "type": "uint32"
        },
        {
          "internalType": "address",
          "name": "",
          "type": "address"
        },
        {
          "internalType": "uint32",
          "name": "",
          "type": "uint32"
        }
      ],
      "payable": false,
      "stateMutability": "view",
      "type": "function"
    },
    {
      "constant": false,
      "inputs": [
        {
          "internalType": "uint32",
          "name": "_user1Id",
          "type": "uint32"
        },
        {
          "internalType": "uint32",
          "name": "_user2Id",
          "type": "uint32"
        },
        {
          "internalType": "uint32",
          "name": "_prodId",
          "type": "uint32"
        }
      ],
      "name": "newOwner",
      "outputs": [
        {
          "internalType": "bool",
          "name": "",
          "type": "bool"
        }
      ],
      "payable": false,
      "stateMutability": "nonpayable",
      "type": "function"
    },
    {
      "constant": true,
      "inputs": [
        {
          "internalType": "uint32",
          "name": "_prodId",
          "type": "uint32"
        }
      ],
      "name": "getProvenance",
      "outputs": [
        {
          "internalType": "uint32[]",
          "name": "",
          "type": "uint32[]"
        }
      ],
      "payable": false,
      "stateMutability": "view",
      "type": "function"
    },
    {
      "constant": true,
      "inputs": [
        {
          "internalType": "uint32",
          "name": "_regId",
          "type": "uint32"
        }
      ],
      "name": "getOwnership",
      "outputs": [
        {
          "internalType": "uint32",
          "name": "",
          "type": "uint32"
        },
        {
          "internalType": "uint32",
          "name": "",
          "type": "uint32"
        },
        {
          "internalType": "address",
          "name": "",
          "type": "address"
        },
        {
          "internalType": "uint32",
          "name": "",
          "type": "uint32"
        }
      ],
      "payable": false,
      "stateMutability": "view",
      "type": "function"
    },
    {
      "constant": true,
      "inputs": [
        {
          "internalType": "uint32",
          "name": "_uid",
          "type": "uint32"
        },
        {
          "internalType": "string",
          "name": "_uname",
          "type": "string"
        },
        {
          "internalType": "string",
          "name": "_pass",
          "type": "string"
        },
        {
          "internalType": "string",
          "name": "_utype",
          "type": "string"
        }
      ],
      "name": "authenticateParticipant",
      "outputs": [
        {
          "internalType": "bool",
          "name": "",
          "type": "bool"
        }
      ],
      "payable": false,
      "stateMutability": "view",
      "type": "function"
    }
  ],
  "bytecode": "0x6080604052600080546001600160601b031916905534801561002057600080fd5b50612b18806100306000396000f3fe608060405234801561001057600080fd5b50600436106100f55760003560e01c80638f5ebf7111610097578063df6d23f111610066578063df6d23f114610a7e578063eab0a47914610ada578063ebf43a7e14610ae2578063fc2da91014610ca1576100f5565b80638f5ebf71146107f0578063a638ac49146107f8578063bf712fd614610984578063c856956514610a0b576100f5565b806350632104116100d3578063506321041461029f578063721b5743146104625780637d0a9ac91461061d57806381e1561014610793576100f5565b80631a074802146100fa5780632e9d52841461013c5780633b26a65d14610185575b600080fd5b6101236004803603604081101561011057600080fd5b5063ffffffff8135169060200135610ca9565b6040805163ffffffff9092168252519081900360200190f35b6101716004803603606081101561015257600080fd5b5063ffffffff8135811691602081013582169160409091013516610cef565b604080519115158252519081900360200190f35b6101a86004803603602081101561019b57600080fd5b503563ffffffff16611b49565b6040518080602001846001600160a01b03166001600160a01b0316815260200180602001838103835286818151815260200191508051906020019080838360005b838110156102015781810151838201526020016101e9565b50505050905090810190601f16801561022e5780820380516001836020036101000a031916815260200191505b50838103825284518152845160209182019186019080838360005b83811015610261578181015183820152602001610249565b50505050905090810190601f16801561028e5780820380516001836020036101000a031916815260200191505b509550505050505060405180910390f35b610123600480360360a08110156102b557600080fd5b63ffffffff8235169190810190604081016020820135600160201b8111156102dc57600080fd5b8201836020820111156102ee57600080fd5b803590602001918460018302840111600160201b8311171561030f57600080fd5b91908080601f0160208091040260200160405190810160405280939291908181526020018383808284376000920191909152509295949360208101935035915050600160201b81111561036157600080fd5b82018360208201111561037357600080fd5b803590602001918460018302840111600160201b8311171561039457600080fd5b91908080601f0160208091040260200160405190810160405280939291908181526020018383808284376000920191909152509295949360208101935035915050600160201b8111156103e657600080fd5b8201836020820111156103f857600080fd5b803590602001918460018302840111600160201b8311171561041957600080fd5b91908080601f0160208091040260200160405190810160405280939291908181526020018383808284376000920191909152509295505050903563ffffffff169150611c9d9050565b6101716004803603608081101561047857600080fd5b63ffffffff8235169190810190604081016020820135600160201b81111561049f57600080fd5b8201836020820111156104b157600080fd5b803590602001918460018302840111600160201b831117156104d257600080fd5b91908080601f0160208091040260200160405190810160405280939291908181526020018383808284376000920191909152509295949360208101935035915050600160201b81111561052457600080fd5b82018360208201111561053657600080fd5b803590602001918460018302840111600160201b8311171561055757600080fd5b91908080601f0160208091040260200160405190810160405280939291908181526020018383808284376000920191909152509295949360208101935035915050600160201b8111156105a957600080fd5b8201836020820111156105bb57600080fd5b803590602001918460018302840111600160201b831117156105dc57600080fd5b91908080601f016020809104026020016040519081016040528093929190818152602001838380828437600092019190915250929550611e8b945050505050565b6106406004803603602081101561063357600080fd5b503563ffffffff166121ce565b604080516001600160a01b0383166060820152608080825286519082015285519091829160208084019284019160a08501918a019080838360005b8381101561069357818101518382015260200161067b565b50505050905090810190601f1680156106c05780820380516001836020036101000a031916815260200191505b50848103835287518152875160209182019189019080838360005b838110156106f35781810151838201526020016106db565b50505050905090810190601f1680156107205780820380516001836020036101000a031916815260200191505b50848103825286518152865160209182019188019080838360005b8381101561075357818101518382015260200161073b565b50505050905090810190601f1680156107805780820380516001836020036101000a031916815260200191505b5097505050505050505060405180910390f35b6107b6600480360360208110156107a957600080fd5b503563ffffffff166123a8565b6040805163ffffffff9586168152938516602085015291909316828201526001600160a01b03909216606082015290519081900360800190f35b6101236123e6565b61081b6004803603602081101561080e57600080fd5b503563ffffffff166123f9565b6040805163ffffffff80861660608301526001600160a01b0385166080830152831660a082015260c080825288519082015287519091829160208084019284019160e08501918c019080838360005b8381101561088257818101518382015260200161086a565b50505050905090810190601f1680156108af5780820380516001836020036101000a031916815260200191505b5084810383528951815289516020918201918b019080838360005b838110156108e25781810151838201526020016108ca565b50505050905090810190601f16801561090f5780820380516001836020036101000a031916815260200191505b5084810382528851815288516020918201918a019080838360005b8381101561094257818101518382015260200161092a565b50505050905090810190601f16801561096f5780820380516001836020036101000a031916815260200191505b50995050505050505050505060405180910390f35b6109a76004803603602081101561099a57600080fd5b503563ffffffff16612602565b604080516001600160a01b038516606082015263ffffffff8481166080830152831660a082015260c080825288519082015287519091829160208084019284019160e08501918c01908083836000831561088257818101518382015260200161086a565b610a2e60048036036020811015610a2157600080fd5b503563ffffffff166127f6565b60408051602080825283518183015283519192839290830191858101910280838360005b83811015610a6a578181015183820152602001610a52565b505050509050019250505060405180910390f35b610aa160048036036020811015610a9457600080fd5b503563ffffffff1661288b565b6040805163ffffffff958616815293851660208501526001600160a01b0390921683830152909216606082015290519081900360800190f35b610123612906565b61012360048036036080811015610af857600080fd5b810190602081018135600160201b811115610b1257600080fd5b820183602082011115610b2457600080fd5b803590602001918460018302840111600160201b83111715610b4557600080fd5b91908080601f0160208091040260200160405190810160405280939291908181526020018383808284376000920191909152509295949360208101935035915050600160201b811115610b9757600080fd5b820183602082011115610ba957600080fd5b803590602001918460018302840111600160201b83111715610bca57600080fd5b91908080601f01602080910402602001604051908101604052809392919081815260200183838082843760009201919091525092956001600160a01b03853516959094909350604081019250602001359050600160201b811115610c2d57600080fd5b820183602082011115610c3f57600080fd5b803590602001918460018302840111600160201b83111715610c6057600080fd5b91908080601f016020809104026020016040519081016040528093929190818152602001838380828437600092019190915250929550612912945050505050565b6101236129dd565b60046020528160005260406000208181548110610cc257fe5b9060005260206000209060089182820401919006600402915091509054906101000a900463ffffffff1681565b63ffffffff811660009081526001602052604081206003015482906001600160a01b03163314610d40576040805162461bcd60e51b8152602060048201526000602482015290519081900360640190fd5b610d486129f0565b63ffffffff86166000908152600260208181526040928390208351815460a0601f60001961010060018516150201909216959095049081018490049093028101840190945260808401828152909284928491840182828015610deb5780601f10610dc057610100808354040283529160200191610deb565b820191906000526020600020905b815481529060010190602001808311610dce57829003601f168201915b50505050508152602001600182018054600181600116156101000203166002900480601f016020809104026020016040519081016040528092919081815260200182805460018160011615610100020316600290048015610e8d5780601f10610e6257610100808354040283529160200191610e8d565b820191906000526020600020905b815481529060010190602001808311610e7057829003601f168201915b5050509183525050600282810180546040805160206001841615610100026000190190931694909404601f81018390048302850183019091528084529381019390830182828015610f1f5780601f10610ef457610100808354040283529160200191610f1f565b820191906000526020600020905b815481529060010190602001808311610f0257829003601f168201915b5050509183525050600391909101546001600160a01b03166020909101529050610f476129f0565b63ffffffff86166000908152600260208181526040928390208351815460a0601f60001961010060018516150201909216959095049081018490049093028101840190945260808401828152909284928491840182828015610fea5780601f10610fbf57610100808354040283529160200191610fea565b820191906000526020600020905b815481529060010190602001808311610fcd57829003601f168201915b50505050508152602001600182018054600181600116156101000203166002900480601f01602080910402602001604051908101604052809291908181526020018280546001816001161561010002031660029004801561108c5780601f106110615761010080835404028352916020019161108c565b820191906000526020600020905b81548152906001019060200180831161106f57829003601f168201915b5050509183525050600282810180546040805160206001841615610100026000190190931694909404601f8101839004830285018301909152808452938101939083018282801561111e5780601f106110f35761010080835404028352916020019161111e565b820191906000526020600020905b81548152906001019060200180831161110157829003601f168201915b5050509183525050600391909101546001600160a01b03166020918201526000805463ffffffff600160401b808304821660018101909216026bffffffff00000000000000001990921691909117909155604080516b26b0b73ab330b1ba3ab932b960a11b8152815190819003600c018120918701518051959650929491939081019182918401908083835b602083106111c95780518252601f1990920191602091820191016111aa565b6001836020036101000a0380198251168184511680821785525050505050509050019150506040516020818303038152906040528051906020012014801561129c5750604080516729bab8383634b2b960c11b81528151908190036008018120918401518051909160209081019182918401908083835b6020831061125f5780518252601f199092019160209182019101611240565b6001836020036101000a03801982511681845116808217855250505050505090500191505060405160208183030381529060405280519060200120145b156114b75785600360008363ffffffff1663ffffffff16815260200190815260200160002060000160006101000a81548163ffffffff021916908363ffffffff1602179055508160600151600360008363ffffffff1663ffffffff168152602001908152602001600020600001600c6101000a8154816001600160a01b0302191690836001600160a01b0316021790555086600360008363ffffffff1663ffffffff16815260200190815260200160002060000160046101000a81548163ffffffff021916908363ffffffff16021790555042600360008363ffffffff1663ffffffff16815260200190815260200160002060000160086101000a81548163ffffffff021916908363ffffffff1602179055508160600151600160008863ffffffff1663ffffffff16815260200190815260200160002060030160006101000a8154816001600160a01b0302191690836001600160a01b03160217905550600460008763ffffffff1663ffffffff16815260200190815260200160002081908060018154018082558091505090600182039060005260206000209060089182820401919006600402909192909190916101000a81548163ffffffff021916908363ffffffff160217905550507fa5470ac012c6e9dc500e62b1d3de0de58db49b3ab7cfebbfb126d9abd854199b86604051808263ffffffff1663ffffffff16815260200191505060405180910390a160019450505050611b41565b604080516729bab8383634b2b960c11b81528151908190036008018120918501518051909160209081019182918401908083835b6020831061150a5780518252601f1990920191602091820191016114eb565b6001836020036101000a038019825116818451168082178552505050505050905001915050604051602081830303815290604052805190602001201480156115dd5750604080516729bab8383634b2b960c11b81528151908190036008018120918401518051909160209081019182918401908083835b602083106115a05780518252601f199092019160209182019101611581565b6001836020036101000a03801982511681845116808217855250505050505090500191505060405160208183030381529060405280519060200120145b156117f85785600360008363ffffffff1663ffffffff16815260200190815260200160002060000160006101000a81548163ffffffff021916908363ffffffff1602179055508160600151600360008363ffffffff1663ffffffff168152602001908152602001600020600001600c6101000a8154816001600160a01b0302191690836001600160a01b0316021790555086600360008363ffffffff1663ffffffff16815260200190815260200160002060000160046101000a81548163ffffffff021916908363ffffffff16021790555042600360008363ffffffff1663ffffffff16815260200190815260200160002060000160086101000a81548163ffffffff021916908363ffffffff1602179055508160600151600160008863ffffffff1663ffffffff16815260200190815260200160002060030160006101000a8154816001600160a01b0302191690836001600160a01b03160217905550600460008763ffffffff1663ffffffff16815260200190815260200160002081908060018154018082558091505090600182039060005260206000209060089182820401919006600402909192909190916101000a81548163ffffffff021916908363ffffffff160217905550507fa5470ac012c6e9dc500e62b1d3de0de58db49b3ab7cfebbfb126d9abd854199b86604051808263ffffffff1663ffffffff16815260200191505060405180910390a160019450505050611b41565b604080516729bab8383634b2b960c11b81528151908190036008018120918501518051909160209081019182918401908083835b6020831061184b5780518252601f19909201916020918201910161182c565b6001836020036101000a0380198251168184511680821785525050505050509050019150506040516020818303038152906040528051906020012014801561191e5750604080516721b7b739bab6b2b960c11b81528151908190036008018120918401518051909160209081019182918401908083835b602083106118e15780518252601f1990920191602091820191016118c2565b6001836020036101000a03801982511681845116808217855250505050505090500191505060405160208183030381529060405280519060200120145b15611b395785600360008363ffffffff1663ffffffff16815260200190815260200160002060000160006101000a81548163ffffffff021916908363ffffffff1602179055508160600151600360008363ffffffff1663ffffffff168152602001908152602001600020600001600c6101000a8154816001600160a01b0302191690836001600160a01b0316021790555086600360008363ffffffff1663ffffffff16815260200190815260200160002060000160046101000a81548163ffffffff021916908363ffffffff16021790555042600360008363ffffffff1663ffffffff16815260200190815260200160002060000160086101000a81548163ffffffff021916908363ffffffff1602179055508160600151600160008863ffffffff1663ffffffff16815260200190815260200160002060030160006101000a8154816001600160a01b0302191690836001600160a01b03160217905550600460008763ffffffff1663ffffffff16815260200190815260200160002081908060018154018082558091505090600182039060005260206000209060089182820401919006600402909192909190916101000a81548163ffffffff021916908363ffffffff160217905550507fa5470ac012c6e9dc500e62b1d3de0de58db49b3ab7cfebbfb126d9abd854199b86604051808263ffffffff1663ffffffff16815260200191505060405180910390a160019450505050611b41565b600094505050505b509392505050565b63ffffffff8116600090815260026020818152604080842060038101548154835161010060018316150260001901909116869004601f810186900486028201860190945283815260609695879593946001600160a01b0390931693908501928591830182828015611bfb5780601f10611bd057610100808354040283529160200191611bfb565b820191906000526020600020905b815481529060010190602001808311611bde57829003601f168201915b5050845460408051602060026001851615610100026000190190941693909304601f810184900484028201840190925281815295985086945092508401905082828015611c895780601f10611c5e57610100808354040283529160200191611c89565b820191906000526020600020905b815481529060010190602001808311611c6c57829003601f168201915b505050505090509250925092509193909250565b604080516b26b0b73ab330b1ba3ab932b960a11b8152815190819003600c01812063ffffffff8816600090815260026020818152948220810180549295939490930191829184916000196101006001831615020116048015611d365780601f10611d14576101008083540402835291820191611d36565b820191906000526020600020905b815481529060010190602001808311611d22575b5050915050604051602081830303815290604052805190602001201415611e7e576000805463ffffffff198116600163ffffffff9283168181019093169190911783558183526020908152604090922087519192611d979290890190612a21565b5063ffffffff811660009081526001602081815260409092208751611dc493919092019190880190612a21565b5063ffffffff811660009081526001602090815260409091208551611df192600290920191870190612a21565b5063ffffffff808216600081815260016020818152604080842060039081018054888c16600160a01b0263ffffffff60a01b19909116178082558f8916875260028552928620909101549590945291905242909316600160c01b0263ffffffff60c01b196001600160a01b03199094166001600160a01b0390931692909217929092161790559050611e82565b5060005b95945050505050565b6000816040516020018082805190602001908083835b60208310611ec05780518252601f199092019160209182019101611ea1565b6001836020036101000a03801982511681845116808217855250505050505090500191505060405160208183030381529060405280519060200120600260008763ffffffff1663ffffffff1681526020019081526020016000206002016040516020018082805460018160011615610100020316600290048015611f7b5780601f10611f59576101008083540402835291820191611f7b565b820191906000526020600020905b815481529060010190602001808311611f67575b50509150506040516020818303038152906040528051906020012014156121c257836040516020018082805190602001908083835b60208310611fcf5780518252601f199092019160209182019101611fb0565b6001836020036101000a03801982511681845116808217855250505050505090500191505060405160208183030381529060405280519060200120600260008763ffffffff1663ffffffff168152602001908152602001600020600001604051602001808280546001816001161561010002031660029004801561208a5780601f1061206857610100808354040283529182019161208a565b820191906000526020600020905b815481529060010190602001808311612076575b50509150506040516020818303038152906040528051906020012014156121c257826040516020018082805190602001908083835b602083106120de5780518252601f1990920191602091820191016120bf565b6001836020036101000a03801982511681845116808217855250505050505090500191505060405160208183030381529060405280519060200120600260008763ffffffff1663ffffffff16815260200190815260200160002060010160405160200180828054600181600116156101000203166002900480156121995780601f10612177576101008083540402835291820191612199565b820191906000526020600020905b815481529060010190602001808311612185575b50509150506040516020818303038152906040528051906020012014156121c2575060016121c6565b5060005b949350505050565b600260208181526000928352604092839020805484516001821615610100026000190190911693909304601f810183900483028401830190945283835292839183018282801561225f5780601f106122345761010080835404028352916020019161225f565b820191906000526020600020905b81548152906001019060200180831161224257829003601f168201915b505050505090806001018054600181600116156101000203166002900480601f0160208091040260200160405190810160405280929190818152602001828054600181600116156101000203166002900480156122fd5780601f106122d2576101008083540402835291602001916122fd565b820191906000526020600020905b8154815290600101906020018083116122e057829003601f168201915b50505060028085018054604080516020601f600019610100600187161502019094169590950492830185900485028101850190915281815295969594509092509083018282801561238f5780601f106123645761010080835404028352916020019161238f565b820191906000526020600020905b81548152906001019060200180831161237257829003601f168201915b505050600390930154919250506001600160a01b031684565b60036020526000908152604090205463ffffffff80821691600160201b8104821691600160401b82041690600160601b90046001600160a01b031684565b600054600160401b900463ffffffff1681565b63ffffffff81811660009081526001602081815260408084206003810154815483516002610100838916150260001901909216829004601f8101879004870282018701909552848152606098899889989097889788979692870195870194600160a01b84048516946001600160a01b03851694600160c01b90041692909188918301828280156124ca5780601f1061249f576101008083540402835291602001916124ca565b820191906000526020600020905b8154815290600101906020018083116124ad57829003601f168201915b5050885460408051602060026001851615610100026000190190941693909304601f8101849004840282018401909252818152959b508a9450925084019050828280156125585780601f1061252d57610100808354040283529160200191612558565b820191906000526020600020905b81548152906001019060200180831161253b57829003601f168201915b5050875460408051602060026001851615610100026000190190941693909304601f8101849004840282018401909252818152959a50899450925084019050828280156125e65780601f106125bb576101008083540402835291602001916125e6565b820191906000526020600020905b8154815290600101906020018083116125c957829003601f168201915b5050505050935095509550955095509550955091939550919395565b60016020818152600092835260409283902080548451600294821615610100026000190190911693909304601f81018390048302840183019094528383529283918301828280156126945780601f1061266957610100808354040283529160200191612694565b820191906000526020600020905b81548152906001019060200180831161267757829003601f168201915b505050505090806001018054600181600116156101000203166002900480601f0160208091040260200160405190810160405280929190818152602001828054600181600116156101000203166002900480156127325780601f1061270757610100808354040283529160200191612732565b820191906000526020600020905b81548152906001019060200180831161271557829003601f168201915b50505060028085018054604080516020601f60001961010060018716150201909416959095049283018590048502810185019091528181529596959450909250908301828280156127c45780601f10612799576101008083540402835291602001916127c4565b820191906000526020600020905b8154815290600101906020018083116127a757829003601f168201915b505050600390930154919250506001600160a01b0381169063ffffffff600160a01b8204811691600160c01b90041686565b63ffffffff811660009081526004602090815260409182902080548351818402810184019094528084526060939283018282801561287f57602002820191906000526020600020906000905b82829054906101000a900463ffffffff1663ffffffff16815260200190600401906020826003010492830192600103820291508084116128425790505b50505050509050919050565b600080600080612899612a9f565b5050505063ffffffff91821660009081526003602090815260409182902082516080810184529054808616808352600160201b82048716938301849052600160401b8204909616938201849052600160601b90046001600160a01b03166060909101819052939490939250565b60005463ffffffff1681565b6000805467ffffffff00000000198116600160201b9182900463ffffffff908116600181019091169092021782558082526002602090815260408320875161295c92890190612a21565b5063ffffffff81166000908152600260209081526040909120865161298992600190920191880190612a21565b5063ffffffff811660009081526002602081815260409092206003810180546001600160a01b0319166001600160a01b03891617905585516129d393919092019190860190612a21565b5095945050505050565b600054600160201b900463ffffffff1681565b604051806080016040528060608152602001606081526020016060815260200160006001600160a01b031681525090565b828054600181600116156101000203166002900490600052602060002090601f016020900481019282601f10612a6257805160ff1916838001178555612a8f565b82800160010185558215612a8f579182015b82811115612a8f578251825591602001919060010190612a74565b50612a9b929150612ac6565b5090565b60408051608081018252600080825260208201819052918101829052606081019190915290565b612ae091905b80821115612a9b5760008155600101612acc565b9056fea265627a7a72315820e569764edbe163f2de71f783c72cc47b1c3a4cd664d2fb0804d8ac6d0245caeb64736f6c63430005100032",
  "source": "// SPDX-License-Identifier: SEE LICENSE IN LICENSE\npragma solidity ^0.5.16;\n\ncontract SupplyChain {\n  uint32 public product_id = 0;\n  uint32 public participant_id = 0;\n  uint32 public owner_id = 0;\n\n  struct product {\n    string modelNumber;\n    string partNumber;\n    string serialNumber;\n    address productOwner;\n    uint32 cost;\n    uint32 mfgTimeStamp;\n  }\n\n  mapping(uint32 => product) public products;\n\n  struct participant {\n    string userName;\n    string password;\n    string participantType;\n    address participantAddress;\n  }\n\n  mapping(uint32 => participant) public participants;\n\n\n  struct ownership {\n    uint32 productId;\n    uint32 ownerId;\n    uint32 trxTimeStamp;\n    address productOwner;\n  }\n\n  mapping(uint32 => ownership) public ownerships;\n  mapping(uint32 => uint32[]) public productTrack;\n\n  event TransferOwnership(uint32 productId);\n\n  function addParticipant(string memory _name, string memory _pass, address _pAdd, string memory _pType) public returns (uint32) {\n    uint32 userId = participant_id++;\n    participants[userId].userName = _name;\n    participants[userId].password = _pass;\n    participants[userId].participantAddress = _pAdd;\n    participants[userId].participantType = _pType;\n\n    return userId;\n  }\n\n  function getParticipant(uint32 _participant_id) public view returns (string memory, address, string memory) {\n    return (participants[_participant_id].userName, participants[_participant_id].participantAddress, participants[_participant_id].participantType);\n  }\n\n  function addProduct(uint32 _ownerId, string memory _modelNumber, string memory _partNumber, string memory _serialNumber, uint32 _productCost)\n    public returns (uint32) {\n      if(keccak256(abi.encodePacked(participants[_ownerId].participantType)) == keccak256(\"Manufacturer\")) {\n        uint32 productId = product_id++;\n\n        products[productId].modelNumber = _modelNumber;\n        products[productId].partNumber = _partNumber;\n        products[productId].serialNumber = _serialNumber;\n        products[productId].cost = _productCost;\n        products[productId].productOwner = participants[_ownerId].participantAddress;\n        products[productId].mfgTimeStamp = uint32(now);\n\n        return productId;\n      }\n\n      return 0;\n    }\n\n  modifier onlyOwner(uint32 _productId) {\n    require(msg.sender == products[_productId].productOwner, \"\");\n    _;\n  }\n\n  function getProduct(uint32 _productId) public view returns (string memory, string memory, string memory, uint32, address, uint32) {\n    return (\n      products[_productId].modelNumber,\n      products[_productId].partNumber,\n      products[_productId].serialNumber,\n      products[_productId].cost,\n      products[_productId].productOwner,\n      products[_productId].mfgTimeStamp\n    );\n  }\n\n  function newOwner(uint32 _user1Id, uint32 _user2Id, uint32 _prodId) onlyOwner(_prodId) public returns (bool) {\n    participant memory p1 = participants[_user1Id];\n    participant memory p2 = participants[_user2Id];\n    uint32 ownership_id = owner_id++;\n\n    if(keccak256(abi.encodePacked(p1.participantType)) == keccak256(\"Manufacturer\") \n      && keccak256(abi.encodePacked(p2.participantType)) == keccak256(\"Supplier\")\n    ) {\n      ownerships[ownership_id].productId = _prodId;\n      ownerships[ownership_id].productOwner = p2.participantAddress;\n      ownerships[ownership_id].ownerId = _user2Id;\n      ownerships[ownership_id].trxTimeStamp = uint32(now);\n      products[_prodId].productOwner = p2.participantAddress;\n      productTrack[_prodId].push(ownership_id);\n      emit TransferOwnership(_prodId);\n\n      return (true);\n    } \n    else if(keccak256(abi.encodePacked(p1.participantType)) == keccak256(\"Supplier\") && keccak256(abi.encodePacked(p2.participantType)) == keccak256(\"Supplier\")) {\n      ownerships[ownership_id].productId = _prodId;\n      ownerships[ownership_id].productOwner = p2.participantAddress;\n      ownerships[ownership_id].ownerId = _user2Id;\n      ownerships[ownership_id].trxTimeStamp = uint32(now);\n      products[_prodId].productOwner = p2.participantAddress;\n      productTrack[_prodId].push(ownership_id);\n      emit TransferOwnership(_prodId);\n\n      return (true);\n    }\n    else if(keccak256(abi.encodePacked(p1.participantType)) == keccak256(\"Supplier\") && keccak256(abi.encodePacked(p2.participantType)) == keccak256(\"Consumer\")) {\n      ownerships[ownership_id].productId = _prodId;\n      ownerships[ownership_id].productOwner = p2.participantAddress;\n      ownerships[ownership_id].ownerId = _user2Id;\n      ownerships[ownership_id].trxTimeStamp = uint32(now);\n      products[_prodId].productOwner = p2.participantAddress;\n      productTrack[_prodId].push(ownership_id);\n      emit TransferOwnership(_prodId);\n\n      return (true);\n    }\n\n    return (false);\n  }\n\n  function getProvenance(uint32 _prodId) external view returns (uint32[] memory) {\n    return productTrack[_prodId];\n  }\n\n  function getOwnership(uint32 _regId) public view returns (uint32, uint32, address, uint32) {\n    ownership memory r = ownerships[_regId];\n\n    return (r.productId, r.ownerId, r.productOwner, r.trxTimeStamp);\n  }\n\n  function authenticateParticipant(\n    uint32 _uid,\n    string memory _uname,\n    string memory _pass,\n    string memory _utype\n  ) public view returns (bool) {\n    if(keccak256(abi.encodePacked(participants[_uid].participantType)) == keccak256(abi.encodePacked(_utype))) {\n      if(keccak256(abi.encodePacked(participants[_uid].userName)) == keccak256(abi.encodePacked(_uname))) {\n        if(keccak256(abi.encodePacked(participants[_uid].password)) == keccak256(abi.encodePacked(_pass))) {\n            return (true);\n        }\n      }\n    }\n\n    return (false);\n  }\n\n}",
  "sourcePath": "/home/dika/learning/solidity/supplychainapp/contracts/SupplyChain.sol",
  "compiler": {
    "name": "solc",
    "version": "0.5.16+commit.9c3226ce.Emscripten.clang"
  },
  "schemaVersion": "3.4.13",
  "updatedAt": "2023-04-30T04:18:46.607Z",
  "devdoc": {
    "methods": {}
  },
  "userdoc": {
    "methods": {}
  }
}